{
  "contractName": "TreasureHunt",
  "abi": [
    {
      "inputs": [
        {
          "internalType": "uint256",
          "name": "_joinFee",
          "type": "uint256"
        },
        {
          "internalType": "uint256",
          "name": "_gridSize",
          "type": "uint256"
        },
        {
          "internalType": "uint256",
          "name": "_turnDuration",
          "type": "uint256"
        }
      ],
      "stateMutability": "nonpayable",
      "type": "constructor"
    },
    {
      "anonymous": false,
      "inputs": [
        {
          "indexed": false,
          "internalType": "uint256",
          "name": "newTreasurePosition",
          "type": "uint256"
        }
      ],
      "name": "GameReset",
      "type": "event"
    },
    {
      "anonymous": false,
      "inputs": [
        {
          "indexed": false,
          "internalType": "address",
          "name": "player",
          "type": "address"
        },
        {
          "indexed": false,
          "internalType": "string",
          "name": "name",
          "type": "string"
        }
      ],
      "name": "PlayerJoined",
      "type": "event"
    },
    {
      "anonymous": false,
      "inputs": [
        {
          "indexed": false,
          "internalType": "address",
          "name": "player",
          "type": "address"
        },
        {
          "indexed": false,
          "internalType": "uint256",
          "name": "newPosition",
          "type": "uint256"
        }
      ],
      "name": "PlayerMoved",
      "type": "event"
    },
    {
      "anonymous": false,
      "inputs": [
        {
          "indexed": false,
          "internalType": "address",
          "name": "winner",
          "type": "address"
        },
        {
          "indexed": false,
          "internalType": "uint256",
          "name": "reward",
          "type": "uint256"
        }
      ],
      "name": "TreasureFound",
      "type": "event"
    },
    {
      "inputs": [],
      "name": "gridSize",
      "outputs": [
        {
          "internalType": "uint256",
          "name": "",
          "type": "uint256"
        }
      ],
      "stateMutability": "view",
      "type": "function",
      "constant": true
    },
    {
      "inputs": [],
      "name": "joinFee",
      "outputs": [
        {
          "internalType": "uint256",
          "name": "",
          "type": "uint256"
        }
      ],
      "stateMutability": "view",
      "type": "function",
      "constant": true
    },
    {
      "inputs": [],
      "name": "lastResetTime",
      "outputs": [
        {
          "internalType": "uint256",
          "name": "",
          "type": "uint256"
        }
      ],
      "stateMutability": "view",
      "type": "function",
      "constant": true
    },
    {
      "inputs": [
        {
          "internalType": "uint256",
          "name": "",
          "type": "uint256"
        }
      ],
      "name": "playerAddresses",
      "outputs": [
        {
          "internalType": "address",
          "name": "",
          "type": "address"
        }
      ],
      "stateMutability": "view",
      "type": "function",
      "constant": true
    },
    {
      "inputs": [
        {
          "internalType": "address",
          "name": "",
          "type": "address"
        }
      ],
      "name": "players",
      "outputs": [
        {
          "internalType": "uint256",
          "name": "position",
          "type": "uint256"
        },
        {
          "internalType": "bool",
          "name": "hasMoved",
          "type": "bool"
        },
        {
          "internalType": "string",
          "name": "name",
          "type": "string"
        },
        {
          "internalType": "uint256",
          "name": "score",
          "type": "uint256"
        },
        {
          "internalType": "uint256",
          "name": "lastMoveTime",
          "type": "uint256"
        }
      ],
      "stateMutability": "view",
      "type": "function",
      "constant": true
    },
    {
      "inputs": [],
      "name": "treasurePosition",
      "outputs": [
        {
          "internalType": "uint256",
          "name": "",
          "type": "uint256"
        }
      ],
      "stateMutability": "view",
      "type": "function",
      "constant": true
    },
    {
      "inputs": [],
      "name": "turnDuration",
      "outputs": [
        {
          "internalType": "uint256",
          "name": "",
          "type": "uint256"
        }
      ],
      "stateMutability": "view",
      "type": "function",
      "constant": true
    },
    {
      "inputs": [],
      "name": "winner",
      "outputs": [
        {
          "internalType": "address",
          "name": "",
          "type": "address"
        }
      ],
      "stateMutability": "view",
      "type": "function",
      "constant": true
    },
    {
      "inputs": [
        {
          "internalType": "string",
          "name": "playerName",
          "type": "string"
        }
      ],
      "name": "joinGame",
      "outputs": [],
      "stateMutability": "payable",
      "type": "function",
      "payable": true
    },
    {
      "inputs": [
        {
          "internalType": "uint256",
          "name": "newPosition",
          "type": "uint256"
        }
      ],
      "name": "move",
      "outputs": [],
      "stateMutability": "nonpayable",
      "type": "function"
    },
    {
      "inputs": [],
      "name": "resetTurn",
      "outputs": [],
      "stateMutability": "nonpayable",
      "type": "function"
    },
    {
      "inputs": [
        {
          "internalType": "address",
          "name": "playerAddress",
          "type": "address"
        }
      ],
      "name": "getPlayerName",
      "outputs": [
        {
          "internalType": "string",
          "name": "",
          "type": "string"
        }
      ],
      "stateMutability": "view",
      "type": "function",
      "constant": true
    },
    {
      "inputs": [
        {
          "internalType": "address",
          "name": "playerAddress",
          "type": "address"
        }
      ],
      "name": "getPlayerScore",
      "outputs": [
        {
          "internalType": "uint256",
          "name": "",
          "type": "uint256"
        }
      ],
      "stateMutability": "view",
      "type": "function",
      "constant": true
    },
    {
      "inputs": [],
      "name": "getPlayerCount",
      "outputs": [
        {
          "internalType": "uint256",
          "name": "",
          "type": "uint256"
        }
      ],
      "stateMutability": "view",
      "type": "function",
      "constant": true
    }
  ],
  "bytecode": "0x60806040523480156200001157600080fd5b50604051620021f4380380620021f4833981810160405281019062000037919062000246565b8260048190555081600581905550806006819055506200005c6200006560201b60201c565b50505062000482565b6000600554600554620000799190620002d1565b42446040516020016200008e92919062000341565b6040516020818303038152906040528051906020012060001c620000b39190620003a0565b9050806002819055506000600360006101000a81548173ffffffffffffffffffffffffffffffffffffffff021916908373ffffffffffffffffffffffffffffffffffffffff1602179055504260078190555060005b600180549050811015620001c757600080600060018481548110620001325762000131620003d8565b5b9060005260206000200160009054906101000a900473ffffffffffffffffffffffffffffffffffffffff1673ffffffffffffffffffffffffffffffffffffffff1673ffffffffffffffffffffffffffffffffffffffff16815260200190815260200160002060010160006101000a81548160ff0219169083151502179055508080620001be9062000407565b91505062000108565b507fde24ae18b2bda089720ca38332df93ab6195d7b5b3b0981ccae6b33e0a6c3f9b600254604051620001fb919062000465565b60405180910390a150565b600080fd5b6000819050919050565b62000220816200020b565b81146200022c57600080fd5b50565b600081519050620002408162000215565b92915050565b60008060006060848603121562000262576200026162000206565b5b600062000272868287016200022f565b935050602062000285868287016200022f565b925050604062000298868287016200022f565b9150509250925092565b7f4e487b7100000000000000000000000000000000000000000000000000000000600052601160045260246000fd5b6000620002de826200020b565b9150620002eb836200020b565b9250828202620002fb816200020b565b91508282048414831517620003155762000314620002a2565b5b5092915050565b6000819050919050565b6200033b62000335826200020b565b6200031c565b82525050565b60006200034f828562000326565b60208201915062000361828462000326565b6020820191508190509392505050565b7f4e487b7100000000000000000000000000000000000000000000000000000000600052601260045260246000fd5b6000620003ad826200020b565b9150620003ba836200020b565b925082620003cd57620003cc62000371565b5b828206905092915050565b7f4e487b7100000000000000000000000000000000000000000000000000000000600052603260045260246000fd5b600062000414826200020b565b91507fffffffffffffffffffffffffffffffffffffffffffffffffffffffffffffffff8203620004495762000448620002a2565b5b600182019050919050565b6200045f816200020b565b82525050565b60006020820190506200047c600083018462000454565b92915050565b611d6280620004926000396000f3fe6080604052600436106100dd5760003560e01c8063a21771241161007f578063e085c53911610059578063e085c5391461027d578063e18d38ce146102ba578063e2eb41ff146102f7578063fbf7c7df14610338576100dd565b8063a2177124146101fc578063c2e5220614610227578063dfbf53ae14610252576100dd565b806379f9607d116100bb57806379f9607d1461016657806387cb15f7146101915780639de8537e146101ba5780639e8fc275146101e5576100dd565b806305066917146100e257806315c6aee21461010d5780633d536a2e1461014a575b600080fd5b3480156100ee57600080fd5b506100f7610363565b60405161010491906110aa565b60405180910390f35b34801561011957600080fd5b50610134600480360381019061012f9190611105565b610369565b6040516101419190611173565b60405180910390f35b610164600480360381019061015f91906112d4565b6103a8565b005b34801561017257600080fd5b5061017b61064e565b60405161018891906110aa565b60405180910390f35b34801561019d57600080fd5b506101b860048036038101906101b39190611105565b610654565b005b3480156101c657600080fd5b506101cf610aa0565b6040516101dc91906110aa565b60405180910390f35b3480156101f157600080fd5b506101fa610aa6565b005b34801561020857600080fd5b50610211610bbc565b60405161021e91906110aa565b60405180910390f35b34801561023357600080fd5b5061023c610bc2565b60405161024991906110aa565b60405180910390f35b34801561025e57600080fd5b50610267610bcf565b6040516102749190611173565b60405180910390f35b34801561028957600080fd5b506102a4600480360381019061029f9190611349565b610bf5565b6040516102b191906110aa565b60405180910390f35b3480156102c657600080fd5b506102e160048036038101906102dc9190611349565b610c40565b6040516102ee91906113f5565b60405180910390f35b34801561030357600080fd5b5061031e60048036038101906103199190611349565b610d13565b60405161032f959493929190611432565b60405180910390f35b34801561034457600080fd5b5061034d610dde565b60405161035a91906110aa565b60405180910390f35b60065481565b6001818154811061037957600080fd5b906000526020600020016000915054906101000a900473ffffffffffffffffffffffffffffffffffffffff1681565b6004543410156103ed576040517f08c379a00000000000000000000000000000000000000000000000000000000081526004016103e4906114fe565b60405180910390fd5b60008060003373ffffffffffffffffffffffffffffffffffffffff1673ffffffffffffffffffffffffffffffffffffffff1681526020019081526020016000206000015414610471576040517f08c379a00000000000000000000000000000000000000000000000000000000081526004016104689061156a565b60405180910390fd5b600060055460055461048391906115b9565b4233604051602001610496929190611664565b6040516020818303038152906040528051906020012060001c6104b991906116bf565b905060025481036104ee576005546005546104d491906115b9565b6001826104e191906116f0565b6104eb91906116bf565b90505b6040518060a0016040528082815260200160001515815260200183815260200160008152602001428152506000803373ffffffffffffffffffffffffffffffffffffffff1673ffffffffffffffffffffffffffffffffffffffff1681526020019081526020016000206000820151816000015560208201518160010160006101000a81548160ff02191690831515021790555060408201518160020190816105969190611930565b5060608201518160030155608082015181600401559050506001339080600181540180825580915050600190039060005260206000200160009091909190916101000a81548173ffffffffffffffffffffffffffffffffffffffff021916908373ffffffffffffffffffffffffffffffffffffffff1602179055507fb46af3c568709a25575d501b270c4768aef802b1e39fb922a8f21cb385e2ae9b3383604051610642929190611a02565b60405180910390a15050565b60055481565b60008060003373ffffffffffffffffffffffffffffffffffffffff1673ffffffffffffffffffffffffffffffffffffffff16815260200190815260200160002060000154116106d8576040517f08c379a00000000000000000000000000000000000000000000000000000000081526004016106cf90611a7e565b60405180910390fd5b6000803373ffffffffffffffffffffffffffffffffffffffff1673ffffffffffffffffffffffffffffffffffffffff16815260200190815260200160002060010160009054906101000a900460ff1615610767576040517f08c379a000000000000000000000000000000000000000000000000000000000815260040161075e90611aea565b60405180910390fd5b6107b26000803373ffffffffffffffffffffffffffffffffffffffff1673ffffffffffffffffffffffffffffffffffffffff1681526020019081526020016000206000015482610de4565b6107f1576040517f08c379a00000000000000000000000000000000000000000000000000000000081526004016107e890611b56565b60405180910390fd5b806000803373ffffffffffffffffffffffffffffffffffffffff1673ffffffffffffffffffffffffffffffffffffffff1681526020019081526020016000206000018190555060016000803373ffffffffffffffffffffffffffffffffffffffff1673ffffffffffffffffffffffffffffffffffffffff16815260200190815260200160002060010160006101000a81548160ff021916908315150217905550426000803373ffffffffffffffffffffffffffffffffffffffff1673ffffffffffffffffffffffffffffffffffffffff168152602001908152602001600020600401819055507fe0a1b340a14d47a5482875f738abb6e2c70f533d80188606facc527b70cbd2123382604051610908929190611b76565b60405180910390a16002548114801561096f5750600073ffffffffffffffffffffffffffffffffffffffff16600360009054906101000a900473ffffffffffffffffffffffffffffffffffffffff1673ffffffffffffffffffffffffffffffffffffffff16145b15610a9d5733600360006101000a81548173ffffffffffffffffffffffffffffffffffffffff021916908373ffffffffffffffffffffffffffffffffffffffff16021790555060016000803373ffffffffffffffffffffffffffffffffffffffff1673ffffffffffffffffffffffffffffffffffffffff1681526020019081526020016000206003016000828254610a0791906116f0565b9250508190555060004790503373ffffffffffffffffffffffffffffffffffffffff166108fc829081150290604051600060405180830381858888f19350505050158015610a59573d6000803e3d6000fd5b507f80daddee89f5b70b6f51aa83c8215ae92de722f6b09f780e2f334c1ead8b2ad23382604051610a8b929190611b76565b60405180910390a1610a9b610eff565b505b50565b60025481565b600654600754610ab691906116f0565b4211610af7576040517f08c379a0000000000000000000000000000000000000000000000000000000008152600401610aee90611beb565b60405180910390fd5b60005b600180549050811015610bb257600080600060018481548110610b2057610b1f611c0b565b5b9060005260206000200160009054906101000a900473ffffffffffffffffffffffffffffffffffffffff1673ffffffffffffffffffffffffffffffffffffffff1673ffffffffffffffffffffffffffffffffffffffff16815260200190815260200160002060010160006101000a81548160ff0219169083151502179055508080610baa90611c3a565b915050610afa565b5042600781905550565b60075481565b6000600180549050905090565b600360009054906101000a900473ffffffffffffffffffffffffffffffffffffffff1681565b60008060008373ffffffffffffffffffffffffffffffffffffffff1673ffffffffffffffffffffffffffffffffffffffff168152602001908152602001600020600301549050919050565b60606000808373ffffffffffffffffffffffffffffffffffffffff1673ffffffffffffffffffffffffffffffffffffffff1681526020019081526020016000206002018054610c8e90611753565b80601f0160208091040260200160405190810160405280929190818152602001828054610cba90611753565b8015610d075780601f10610cdc57610100808354040283529160200191610d07565b820191906000526020600020905b815481529060010190602001808311610cea57829003601f168201915b50505050509050919050565b60006020528060005260406000206000915090508060000154908060010160009054906101000a900460ff1690806002018054610d4f90611753565b80601f0160208091040260200160405190810160405280929190818152602001828054610d7b90611753565b8015610dc85780601f10610d9d57610100808354040283529160200191610dc8565b820191906000526020600020905b815481529060010190602001808311610dab57829003601f168201915b5050505050908060030154908060040154905085565b60045481565b6000600554600554610df691906115b9565b8210610e055760009050610ef9565b600060055484610e159190611c82565b9050600060055485610e2791906116bf565b9050600060055485610e399190611c82565b9050600060055486610e4b91906116bf565b905060008483610e5b9190611cbd565b905060008483610e6b9190611cbd565b90507fffffffffffffffffffffffffffffffffffffffffffffffffffffffffffffffff8212158015610e9e575060018213155b8015610eca57507fffffffffffffffffffffffffffffffffffffffffffffffffffffffffffffffff8112155b8015610ed7575060018113155b8015610ef05750600082148015610eee5750600081145b155b96505050505050505b92915050565b6000600554600554610f1191906115b9565b4244604051602001610f24929190611d00565b6040516020818303038152906040528051906020012060001c610f4791906116bf565b9050806002819055506000600360006101000a81548173ffffffffffffffffffffffffffffffffffffffff021916908373ffffffffffffffffffffffffffffffffffffffff1602179055504260078190555060005b60018054905081101561105457600080600060018481548110610fc257610fc1611c0b565b5b9060005260206000200160009054906101000a900473ffffffffffffffffffffffffffffffffffffffff1673ffffffffffffffffffffffffffffffffffffffff1673ffffffffffffffffffffffffffffffffffffffff16815260200190815260200160002060010160006101000a81548160ff021916908315150217905550808061104c90611c3a565b915050610f9c565b507fde24ae18b2bda089720ca38332df93ab6195d7b5b3b0981ccae6b33e0a6c3f9b60025460405161108691906110aa565b60405180910390a150565b6000819050919050565b6110a481611091565b82525050565b60006020820190506110bf600083018461109b565b92915050565b6000604051905090565b600080fd5b600080fd5b6110e281611091565b81146110ed57600080fd5b50565b6000813590506110ff816110d9565b92915050565b60006020828403121561111b5761111a6110cf565b5b6000611129848285016110f0565b91505092915050565b600073ffffffffffffffffffffffffffffffffffffffff82169050919050565b600061115d82611132565b9050919050565b61116d81611152565b82525050565b60006020820190506111886000830184611164565b92915050565b600080fd5b600080fd5b6000601f19601f8301169050919050565b7f4e487b7100000000000000000000000000000000000000000000000000000000600052604160045260246000fd5b6111e182611198565b810181811067ffffffffffffffff82111715611200576111ff6111a9565b5b80604052505050565b60006112136110c5565b905061121f82826111d8565b919050565b600067ffffffffffffffff82111561123f5761123e6111a9565b5b61124882611198565b9050602081019050919050565b82818337600083830152505050565b600061127761127284611224565b611209565b90508281526020810184848401111561129357611292611193565b5b61129e848285611255565b509392505050565b600082601f8301126112bb576112ba61118e565b5b81356112cb848260208601611264565b91505092915050565b6000602082840312156112ea576112e96110cf565b5b600082013567ffffffffffffffff811115611308576113076110d4565b5b611314848285016112a6565b91505092915050565b61132681611152565b811461133157600080fd5b50565b6000813590506113438161131d565b92915050565b60006020828403121561135f5761135e6110cf565b5b600061136d84828501611334565b91505092915050565b600081519050919050565b600082825260208201905092915050565b60005b838110156113b0578082015181840152602081019050611395565b60008484015250505050565b60006113c782611376565b6113d18185611381565b93506113e1818560208601611392565b6113ea81611198565b840191505092915050565b6000602082019050818103600083015261140f81846113bc565b905092915050565b60008115159050919050565b61142c81611417565b82525050565b600060a082019050611447600083018861109b565b6114546020830187611423565b818103604083015261146681866113bc565b9050611475606083018561109b565b611482608083018461109b565b9695505050505050565b7f496e73756666696369656e742066656520746f206a6f696e207468652067616d60008201527f6500000000000000000000000000000000000000000000000000000000000000602082015250565b60006114e8602183611381565b91506114f38261148c565b604082019050919050565b60006020820190508181036000830152611517816114db565b9050919050565b7f416c7265616479206a6f696e6564000000000000000000000000000000000000600082015250565b6000611554600e83611381565b915061155f8261151e565b602082019050919050565b6000602082019050818103600083015261158381611547565b9050919050565b7f4e487b7100000000000000000000000000000000000000000000000000000000600052601160045260246000fd5b60006115c482611091565b91506115cf83611091565b92508282026115dd81611091565b915082820484148315176115f4576115f361158a565b5b5092915050565b6000819050919050565b61161661161182611091565b6115fb565b82525050565b60008160601b9050919050565b60006116348261161c565b9050919050565b600061164682611629565b9050919050565b61165e61165982611152565b61163b565b82525050565b60006116708285611605565b602082019150611680828461164d565b6014820191508190509392505050565b7f4e487b7100000000000000000000000000000000000000000000000000000000600052601260045260246000fd5b60006116ca82611091565b91506116d583611091565b9250826116e5576116e4611690565b5b828206905092915050565b60006116fb82611091565b915061170683611091565b925082820190508082111561171e5761171d61158a565b5b92915050565b7f4e487b7100000000000000000000000000000000000000000000000000000000600052602260045260246000fd5b6000600282049050600182168061176b57607f821691505b60208210810361177e5761177d611724565b5b50919050565b60008190508160005260206000209050919050565b60006020601f8301049050919050565b600082821b905092915050565b6000600883026117e67fffffffffffffffffffffffffffffffffffffffffffffffffffffffffffffffff826117a9565b6117f086836117a9565b95508019841693508086168417925050509392505050565b6000819050919050565b600061182d61182861182384611091565b611808565b611091565b9050919050565b6000819050919050565b61184783611812565b61185b61185382611834565b8484546117b6565b825550505050565b600090565b611870611863565b61187b81848461183e565b505050565b5b8181101561189f57611894600082611868565b600181019050611881565b5050565b601f8211156118e4576118b581611784565b6118be84611799565b810160208510156118cd578190505b6118e16118d985611799565b830182611880565b50505b505050565b600082821c905092915050565b6000611907600019846008026118e9565b1980831691505092915050565b600061192083836118f6565b9150826002028217905092915050565b61193982611376565b67ffffffffffffffff811115611952576119516111a9565b5b61195c8254611753565b6119678282856118a3565b600060209050601f83116001811461199a5760008415611988578287015190505b6119928582611914565b8655506119fa565b601f1984166119a886611784565b60005b828110156119d0578489015182556001820191506020850194506020810190506119ab565b868310156119ed57848901516119e9601f8916826118f6565b8355505b6001600288020188555050505b505050505050565b6000604082019050611a176000830185611164565b8181036020830152611a2981846113bc565b90509392505050565b7f4e6f74206a6f696e656400000000000000000000000000000000000000000000600082015250565b6000611a68600a83611381565b9150611a7382611a32565b602082019050919050565b60006020820190508181036000830152611a9781611a5b565b9050919050565b7f416c7265616479206d6f7665642074686973207475726e000000000000000000600082015250565b6000611ad4601783611381565b9150611adf82611a9e565b602082019050919050565b60006020820190508181036000830152611b0381611ac7565b9050919050565b7f496e76616c6964206d6f76650000000000000000000000000000000000000000600082015250565b6000611b40600c83611381565b9150611b4b82611b0a565b602082019050919050565b60006020820190508181036000830152611b6f81611b33565b9050919050565b6000604082019050611b8b6000830185611164565b611b98602083018461109b565b9392505050565b7f5475726e206475726174696f6e206e6f74207061737365642079657400000000600082015250565b6000611bd5601c83611381565b9150611be082611b9f565b602082019050919050565b60006020820190508181036000830152611c0481611bc8565b9050919050565b7f4e487b7100000000000000000000000000000000000000000000000000000000600052603260045260246000fd5b6000611c4582611091565b91507fffffffffffffffffffffffffffffffffffffffffffffffffffffffffffffffff8203611c7757611c7661158a565b5b600182019050919050565b6000611c8d82611091565b9150611c9883611091565b925082611ca857611ca7611690565b5b828204905092915050565b6000819050919050565b6000611cc882611cb3565b9150611cd383611cb3565b9250828203905081811260008412168282136000851215161715611cfa57611cf961158a565b5b92915050565b6000611d0c8285611605565b602082019150611d1c8284611605565b602082019150819050939250505056fea2646970667358221220d81358b1f741bc1772d27e94296a52980b1ae33b2dc356f218e62555ab7f68de64736f6c63430008130033",
  "immutableReferences": {},
  "source": "// SPDX-License-Identifier: MIT\r\npragma solidity ^0.8.19;\r\n\r\ncontract TreasureHunt {\r\n    struct Player {\r\n        uint256 position;\r\n        bool hasMoved;\r\n        string name;\r\n        uint256 score;\r\n        uint256 lastMoveTime;\r\n    }\r\n\r\n    mapping(address => Player) public players;\r\n    address[] public playerAddresses;\r\n    uint256 public treasurePosition;\r\n    address public winner;\r\n    uint256 public joinFee;\r\n    uint256 public gridSize;\r\n    uint256 public turnDuration;\r\n    uint256 public lastResetTime;\r\n    \r\n    event PlayerJoined(address player, string name);\r\n    event PlayerMoved(address player, uint256 newPosition);\r\n    event TreasureFound(address winner, uint256 reward);\r\n    event GameReset(uint256 newTreasurePosition);\r\n\r\n    constructor(uint256 _joinFee, uint256 _gridSize, uint256 _turnDuration) {\r\n        joinFee = _joinFee;\r\n        gridSize = _gridSize;\r\n        turnDuration = _turnDuration;\r\n        resetGame();\r\n    }\r\n\r\n    function resetGame() internal {\r\n        // Generate a new random treasure position\r\n        uint256 newTreasurePosition = uint256(keccak256(abi.encodePacked(block.timestamp, block.difficulty))) % (gridSize * gridSize);\r\n        treasurePosition = newTreasurePosition;\r\n        winner = address(0);\r\n        lastResetTime = block.timestamp;\r\n        \r\n        // Reset all players' move status\r\n        for (uint i = 0; i < playerAddresses.length; i++) {\r\n            players[playerAddresses[i]].hasMoved = false;\r\n        }\r\n        \r\n        emit GameReset(treasurePosition);\r\n    }\r\n\r\n    function joinGame(string memory playerName) external payable {\r\n        require(msg.value >= joinFee, \"Insufficient fee to join the game\");\r\n        require(players[msg.sender].position == 0, \"Already joined\");\r\n        \r\n        // Generate a random starting position\r\n        uint256 startPosition = uint256(keccak256(abi.encodePacked(block.timestamp, msg.sender))) % (gridSize * gridSize);\r\n        \r\n        // Make sure it's not the treasure position\r\n        if (startPosition == treasurePosition) {\r\n            startPosition = (startPosition + 1) % (gridSize * gridSize);\r\n        }\r\n        \r\n        players[msg.sender] = Player({\r\n            position: startPosition,\r\n            hasMoved: false,\r\n            name: playerName,\r\n            score: 0,\r\n            lastMoveTime: block.timestamp\r\n        });\r\n        \r\n        playerAddresses.push(msg.sender);\r\n        \r\n        emit PlayerJoined(msg.sender, playerName);\r\n    }\r\n\r\n    function move(uint256 newPosition) external {\r\n        require(players[msg.sender].position > 0, \"Not joined\");\r\n        require(!players[msg.sender].hasMoved, \"Already moved this turn\");\r\n        require(isValidMove(players[msg.sender].position, newPosition), \"Invalid move\");\r\n        \r\n        players[msg.sender].position = newPosition;\r\n        players[msg.sender].hasMoved = true;\r\n        players[msg.sender].lastMoveTime = block.timestamp;\r\n        \r\n        emit PlayerMoved(msg.sender, newPosition);\r\n        \r\n        // Check if player found the treasure\r\n        if (newPosition == treasurePosition && winner == address(0)) {\r\n            winner = msg.sender;\r\n            players[msg.sender].score += 1;\r\n            \r\n            uint256 reward = address(this).balance;\r\n            payable(msg.sender).transfer(reward);\r\n            \r\n            emit TreasureFound(msg.sender, reward);\r\n            \r\n            // Reset the game for a new round\r\n            resetGame();\r\n        }\r\n    }\r\n    \r\n    function resetTurn() external {\r\n        require(block.timestamp > lastResetTime + turnDuration, \"Turn duration not passed yet\");\r\n        \r\n        // Reset all players' move status\r\n        for (uint i = 0; i < playerAddresses.length; i++) {\r\n            players[playerAddresses[i]].hasMoved = false;\r\n        }\r\n        \r\n        lastResetTime = block.timestamp;\r\n    }\r\n    \r\n    function getPlayerName(address playerAddress) external view returns (string memory) {\r\n        return players[playerAddress].name;\r\n    }\r\n    \r\n    function getPlayerScore(address playerAddress) external view returns (uint256) {\r\n        return players[playerAddress].score;\r\n    }\r\n    \r\n    function getPlayerCount() external view returns (uint256) {\r\n        return playerAddresses.length;\r\n    }\r\n    \r\n    function isValidMove(uint256 currentPosition, uint256 newPosition) internal view returns (bool) {\r\n        if (newPosition >= gridSize * gridSize) {\r\n            return false;\r\n        }\r\n        \r\n        uint256 currentRow = currentPosition / gridSize;\r\n        uint256 currentCol = currentPosition % gridSize;\r\n        uint256 newRow = newPosition / gridSize;\r\n        uint256 newCol = newPosition % gridSize;\r\n        \r\n        // Check if the move is to an adjacent cell (including diagonals)\r\n        int256 rowDiff = int256(newRow) - int256(currentRow);\r\n        int256 colDiff = int256(newCol) - int256(currentCol);\r\n        \r\n        return (rowDiff >= -1 && rowDiff <= 1 && colDiff >= -1 && colDiff <= 1) && \r\n               !(rowDiff == 0 && colDiff == 0);\r\n    }\r\n}\r\n",
  "sourcePath": "C:\\TreasureHunt\\treasure-hunt\\contracts\\TreasureHunt.sol",
  "compiler": {
    "name": "solc",
    "version": "0.8.19+commit.7dd6d404.Emscripten.clang"
  },
  "schemaVersion": "3.4.16",
  "updatedAt": "2025-03-20T08:22:54.297Z",
  "networkType": "ethereum",
  "devdoc": {
    "kind": "dev",
    "methods": {},
    "version": 1
  },
  "userdoc": {
    "kind": "user",
    "methods": {},
    "version": 1
  }
}